:020000040800F2
:100000000810002055780008BD790008BF79000865
:10001000C1790008C3790008C57900080000000014
:10002000000000000000000000000000C779000888
:10003000C979000800000000CB790008CD790008DC
:10004000157E0008197E00081D7E0008D57900087D
:10005000217E0008257E00082B7A0008357A0008EA
:10006000297E00082D7E0008217A0008317E0008D4
:10007000357E0008397E0008DD7900083D7E0008E5
:10008000417E0008457E0008E77900080000000076
:1000900000000000497E00084D7E0008517E0008E7
:1000A000557E0008597E00085D7E0008617E0008CC
:1000B000657E0008697E00086D7E0008717E00087C
:1000C0000000000000000000757E00080000000035
:1000D000F1790008797E0008000000007D7E0008AC
:1000E000817E0008857E000800000000897E0008EF
:1000F000097A0008117A0008197A00088D7E000834
:10010000917E0008000000000000000000000000D8
:10011000957E0008997E00089D7E00080000000082
:1001200000000000000000000000000000000000CF
:100130000000000000000000A17E0008DFF8E410CD
:10014000096808407047DFF8DC100968084070470C
:1001500010B50400002C01D1012037E0A06900286F
:10016000FFD1D4F88800002805D1002084F884004D
:10017000200001F006F92420C4F8880020680068F7
:100180004008400021680860A06A002802D02000D2
:1001900000F034FB200000F0F5F9012801D1012026
:1001A00014E02068406830F490402168486020687E
:1001B000806830F02A00216888602068006850F06C
:1001C000010021680860200000F085FB10BD38B5F3
:1001D0000300D3F88C00202821D1002903D010007F
:1001E00080B2002801D101201AE00020D8661868EA
:1001F000DFF88C43A0420DD018684068000209D592
:10020000186850E8004F54F080641D6845E80040CD
:100210000028F5D192B2180000F016FC00E0022090
:1002200032BD00008800005870B504002068C16924
:10023000206802682068836840F60F0008400028A4
:100240000CD18D060AD5950601D4DD0006D5606F68
:10025000002802D02000616F88478FE1002800F05D
:10026000A280DFF89005034204D1DFF88C552A42C2
:1002700000F099800D00ED070AD5D50508D50125B8
:1002800026683562D4F8905055F00105C4F89050B6
:100290008D070BD51D00ED0708D5022526683562B0
:1002A000D4F8905055F00405C4F890504D070BD584
:1002B0001D00ED0708D5042526683562D4F8905056
:1002C00055F00205C4F890500D070CD5950601D4E1
:1002D000034208D0082025682862D4F8900050F026
:1002E0000800C4F8900008050BD5500109D54FF45B
:1002F000006025682862D4F8900050F02000C4F80F
:100300009000D4F8900000284CD0880609D59006BB
:1003100001D4D80005D5606F002802D02000616F9D
:100320008847D4F8900021688968490602D410F003
:10033000280F31D0200000F02EFC20688068400695
:1003400026D52068083050E8001F31F040012068B1
:1003500010F1080242E800100028F2D1D4F8800021
:10036000002811D0DFF88808D4F880108863D4F80A
:10037000800001F013F9002814D0D4F88000D4F8DC
:100380008010896B88470DE0200001F0F1F909E049
:10039000200001F0EDF905E0200001F0E9F900206E
:1003A000C4F89000EAE0E06E012840F0B680C8068C
:1003B00040F1B380D00640F1B0801020216808627F
:1003C0002068806840066BD5D4F8800000684068DB
:1003D000010089B2002950D00100B4F85C2089B234
:1003E00091424AD2A4F85E00D4F880000068006808
:1003F000800636D4206850E8001F31F480712268EE
:1004000042E800100028F5D12068083050E8001FAD
:1004100049084900206810F1080242E8001000284D
:10042000F2D12068083050E8001F31F04001206808
:1004300010F1080242E800100028F2D12020C4F890
:100440008C000020E066206850E8001F31F01001A9
:10045000226842E800100028F5D1D4F8800001F0AD
:100460005DF802202067B4F85C10B4F85E00091A49
:1004700089B2200001F07DF911E0B4F85C1080B27F
:1004800088420CD1D4F8800000680068800606D548
:1004900002202067B4F85C10200001F06AF96DE0DA
:1004A000B4F85C10B4F85E00091AB4F85E000028D5
:1004B00032D0080080B200282ED0206850E8002FEB
:1004C00032F49072236843E800200028F5D12068B8
:1004D000083050E8000FDFF818230240206810F1C0
:1004E000080343E800200028F1D12020C4F88C0044
:1004F0000020E06600206067206850E8002F32F09E
:100500001002236843E800200028F5D1022020676C
:1005100089B2200001F02DF930E0C80209D5580257
:1005200007D55FF4801021680862200001F022F9ED
:1005300024E008060AD5100601D4180206D5A06FDB
:10054000002802D02000A16F884717E0480605D593
:10055000500603D5200000F059FB0FE0080205D536
:10056000500003D5200001F006F907E0C80105D5C9
:10057000002A03D5200001F0FFF8FFE770BD00005E
:100580000080004070B504000025DFF86866206830
:10059000B042FFD0A1682069014360690143E2696C
:1005A0000A4320680168DFF8500601400A432068CA
:1005B00002602068416831F44051E06801432068DE
:1005C0004160A1692068B04201D0206A01432068DF
:1005D0008268DFF83C070240114320688160206890
:1005E000C16A09090901606A01432068C162206883
:1005F000DFF82017884214D10320FFF79FFD002861
:1006000005D0022805D006D3032806D007E0012034
:1006100025E0022023E0042021E008201FE0102034
:100620001DE02068B04219D14FF44060FFF78BFD08
:10063000002809D0B0F5806F0AD0B0F5006F05D062
:10064000B0F5406F06D007E0002008E0022006E089
:10065000042004E0082002E0102000E010202168BF
:10066000B14249D1C0B2002806D0022807D00428E0
:1006700008D0082809D00BE001F076FD0AE0DFF889
:10068000740707E001F01EFD04E04FF4004001E0B4
:1006900000200125002800F09D80DFF85C37616AAA
:1006A00033F81110B0FBF1F2666803214E43B242F9
:1006B00005D366684FF480514E43964201D201251E
:1006C00088E0616A33F81110B0FBF1F24FF48073E7
:1006D000606840080021E3FB02016268002301F02A
:1006E000DDFDB0F54071DFF81427914202D2216898
:1006F000C8606FE001256DE0E169B1F5004F37D1C9
:10070000C0B2012806D0022807D0042808D0082843
:1007100009D00BE001F038FD0AE0DFF8D80607E069
:1007200001F0D0FC04E04FF4004001E0002001257E
:1007300000284FD0DFF8C016626A31F81210B0FB03
:10074000F1F06168490811EB40016068B1FBF0F01D
:100750004FF6F071B0F110028A4207D20140C0F3A7
:100760004200014389B22068C16033E0012531E0D5
:10077000C0B2012806D0022807D0042808D00828D3
:1007800009D00BE001F000FD0AE0DFF8680607E0A1
:1007900001F098FC04E04FF4004001E00020012546
:1007A000002817D0DFF85016626A31F81210B0FB3B
:1007B000F1F0616810EB51006168B0FBF1F0B0F14D
:1007C00010014FF6F072914203D280B22168C860E6
:1007D00000E001250120A4F86A000120A4F86800C7
:1007E000002060670020A0672800C0B270BD000034
:1007F000FEFFFFEF010000102001000490F8281018
:10080000090707D501684A6832F40042816B0A4340
:1008100001684A6090F82810C90707D501684A683E
:1008200032F40032C16A0A4301684A6090F8281025
:10083000890707D501684A6832F48032016B0A43A0
:1008400001684A6090F82810490707D501684A688E
:1008500032F48022416B0A4301684A6090F8281004
:10086000C90607D501688A6832F48052C16B0A4311
:1008700001688A6090F82810890607D501688A689F
:1008800032F40052016C0A4301688A6090F8281023
:10089000490613D501684A6832F48012416C0A4354
:1008A00001684A60416CB1F5801F07D101684A6850
:1008B00032F4C002816C0A4301684A6090F8281043
:1008C000090607D501684A6832F40022C16C0A4360
:1008D00000684260704738B504000020C4F89000FA
:1008E00001F0F4FD05002068006800071DD57FF0C9
:1008F0007E4000902B0000225FF40011200000F0E9
:1009000052F8002811D0206850E8001F31F0800113
:10091000226842E800100028F5D12020C4F88800A1
:10092000002084F8840003203CE020680068400731
:100930002AD57FF07E4000902B0000225FF48001DA
:10094000200000F030F800281ED0206850E8001F7A
:1009500031F49071226842E800100028F5D1206837
:10096000083050E8001F49084900206810F10802CB
:1009700042E800100028F2D12020C4F88C000020AA
:1009800084F8840003200DE02020C4F88800202093
:10099000C4F88C000020E06600202067002084F866
:1009A0008400002032BD2DE9F04105000E00170043
:1009B0009846069C2868C0693040B04201D10120A9
:1009C00000E000203900C9B288423AD114F1010F89
:1009D000F0D001F07BFDB0EB0800844201D3002C85
:1009E00001D103202EE0286800684007E2D5802E60
:1009F000E0D0402EDED02868C069000704D4286803
:100A0000C0690005D6D50DE00820296808622800D5
:100A100000F0C1F80820C5F89000002085F8840097
:100A200001200FE04FF4006029680862280000F000
:100A3000B2F82020C5F89000002085F8840003203B
:100A400000E00020BDE8F08110B403009965A3F830
:100A50005C20A3F85E20002058679868B0F5805F9E
:100A60000BD11869002804D140F2FF10A3F86000F0
:100A700023E0FF20A3F860001FE0986800280AD157
:100A80001869002803D1FF20A3F8600015E07F203B
:100A9000A3F8600011E09868B0F1805F0AD118698E
:100AA000002803D17F20A3F8600006E03F20A3F8D0
:100AB000600002E00020A3F860000020C3F890006E
:100AC0002220C3F88C001868083050E8001F51F04D
:100AD0000101186810F1080444E800100028F2D160
:100AE000586EB0F1005F2DD1B3F8680092B2824227
:100AF00028D39868B0F5805F06D11869002803D123
:100B00000FF2C540586702E00FF2F52058671869E8
:100B1000002809D0186850E8001F51F480711A6845
:100B200042E800100028F5D11868083050E8001F8E
:100B300051F08051186810F1080242E800100028B6
:100B4000F2D125E09868B0F5805F06D118690028D9
:100B500003D10FF2C510586702E00FF2D9005867B1
:100B6000186900280AD0186850E8001F51F49071E5
:100B70001A6842E800100028F5D109E0186850E82A
:100B8000001F51F020011A6842E800100028F5D13A
:100B9000002010BC7047016851E8002F32F49072B9
:100BA000036843E800210029F5D10168083151E8C4
:100BB000001FDFF8DC250A40016811F1080343E853
:100BC00000210029F1D1C16E012909D1016851E844
:100BD000002F32F01002036843E800210029F5D10C
:100BE0002021C0F88C100021C166002141677047A8
:100BF000FD0B000800800040F369FFCF80B5806ADC
:100C00000021A0F85E1000F0B3FD01BD80B50168C1
:100C100051E8002F32F04002036843E80021002928
:100C2000F5D12021C0F888100021816701F06FFC08
:100C300001BD000080B5B0F86010D0F88C20222AE9
:100C40005FD10268526A1140826D1170816D491C3A
:100C50008165B0F85E10491EA0F85E10B0F85E1015
:100C6000002954D1016851E8002F32F490720368D2
:100C700043E800210029F5D10168083151E8002F2F
:100C800052085200016811F1080343E800210029CD
:100C9000F2D12021C0F88C100021416700210167AA
:100CA0000168DFF8F02491420DD00168496809021B
:100CB00009D5016851E8002F32F08062036843E8EB
:100CC00000210029F5D1C16E012917D10021C1668B
:100CD000016851E8002F32F01002036843E8002158
:100CE0000029F5D10168C969C90602D51021026839
:100CF0001162B0F85C1000F03CFD08E001F0FAFB76
:100D000005E00168896951F008010068816101BD51
:100D1000FFF4FF110038014080B5B0F86020D0F832
:100D20008C1022295FD101684B6A816D1A400A80BC
:100D3000816D891C8165B0F85E10491EA0F85E10B7
:100D4000B0F85E10002954D1016851E8002F32F448
:100D50009072036843E800210029F5D10168083149
:100D600051E8002F52085200016811F1080343E8CE
:100D700000210029F2D12021C0F88C100021416708
:100D8000002101670168DFF80C2491420DD0016851
:100D90004968090209D5016851E8002F32F08062E4
:100DA000036843E800210029F5D1C16E012917D15C
:100DB0000021C166016851E8002F32F0100203687B
:100DC00043E800210029F5D10168C969C90602D5A7
:100DD000102102681162B0F85C1000F0CAFC08E053
:100DE00001F088FB05E00168896951F0080100689D
:100DF000816101BD0024F4006C7D000800FD0F003E
:100E00002DE9F8430400B4F860502068C7692068F1
:100E1000D0F800802068D0F80890D4F88C00222800
:100E200040F0C980B4F86860300080B2002800F05B
:100E30009D80B80640F19A802068406A2840A16DE4
:100E40000870A06D401CA065B4F85E00401EA4F8B8
:100E50005E002068C76917F0070F34D03800C0075C
:100E60000BD55FEAC85008D5012021680862D4F884
:100E7000900050F00100C4F89000B8070BD5484628
:100E8000C00708D5022021680862D4F8900050F00D
:100E90000400C4F8900078070BD54846C00708D571
:100EA000042021680862D4F8900050F00200C4F8D1
:100EB0009000D4F89000002805D0200000F058FCE5
:100EC0000020C4F89000B4F85E000028ACD120687F
:100ED00050E8001F31F48071226842E800100028B9
:100EE000F5D12068083050E8000FA949014020687A
:100EF00010F1080242E800100028F2D12020C4F8C6
:100F00008C0000206067002020672068A14988428B
:100F10000DD020684068000209D5206850E8001F05
:100F200031F08061226842E800100028F5D1E06EBF
:100F3000012818D10020E066206850E8001F31F039
:100F40001001226842E800100028F5D12068C0692D
:100F5000C00602D5102021680862B4F85C10200099
:100F600000F007FC02E0200001F0C4FAB4F85E00D3
:100F7000010089B2002924D0B4F8681080B28842F8
:100F80001FD22068083050E8001F31F080512068DF
:100F900010F1080242E800100028F2D17E48606794
:100FA000206850E8001F51F02001226842E800103C
:100FB0000028F5D105E02068806950F0080021681C
:100FC0008861BDE8F18300002DE9F8430400B4F81E
:100FD00060502068C7692068D0F800802068D0F889
:100FE0000890D4F88C00222840F0C980B4F86860DA
:100FF000300080B2002800F09D80B80640F19A8051
:101000002068416AA06D29400180A06D801CA06508
:10101000B4F85E00401EA4F85E002068C76917F0AF
:10102000070F34D03800C0070BD55FEAC85008D589
:10103000012021680862D4F8900050F00100C4F843
:101040009000B8070BD54846C00708D50220216894
:101050000862D4F8900050F00400C4F890007807BB
:101060000BD54846C00708D5042021680862D4F88B
:10107000900050F00200C4F89000D4F890000028CE
:1010800005D0200000F074FB0020C4F89000B4F8F4
:101090005E000028ACD1206850E8001F31F4807158
:1010A000226842E800100028F5D12068083050E896
:1010B000000F37490140206810F1080242E8001093
:1010C0000028F2D12020C4F88C00002060670020A6
:1010D000206720682F4988420DD0206840680002B0
:1010E00009D5206850E8001F31F08061226842E88D
:1010F00000100028F5D1E06E012818D10020E0662C
:10110000206850E8001F31F01001226842E800100A
:101110000028F5D12068C069C00602D510202168DA
:101120000862B4F85C10200000F023FB02E020000D
:1011300001F0E0F9B4F85E00010089B2002924D082
:10114000B4F8681080B288421FD22068083050E896
:10115000001F31F08051206810F1080242E80010B1
:101160000028F2D10D486067206850E8001F51F058
:101170002001226842E800100028F5D105E020682F
:10118000806950F0080021688861BDE8F1830000A3
:10119000FEFFFFEF00800040350C0008190D00082D
:1011A000A5490A6832F44072104308607047A248AB
:1011B000016851F400410160704781B09F490A689D
:1011C00002430A60096808400090009801B0704727
:1011D00081B09B490A6802430A6009680840009090
:1011E000009801B0704781B096490A6802430A60CE
:1011F000096808400090009801B0704781B092499A
:101200000A6802430A60096808400090009801B02B
:1012100070478D490A6832EA00000860704780B55F
:101220005FF40020FFF7D4FF002200212E2001F000
:101230001EFA2E2001F02BFA01BD38B58CB0040047
:10124000302100226D46280001F050FA20687F49C5
:10125000884218D14FF4806000905FF08050079072
:10126000684601F0F8FA002801D001F057FD4FF46C
:101270000070FFF7C3FF00220021122001F0F7F9F0
:10128000122001F004FA0DB030BD80B500686F493E
:10129000884206D14FF40070FFF7BBFF122001F027
:1012A000FBF901BD80B500686949884213D15FF43C
:1012B0008010FFF78DFF002200212C2001F0D7F9CC
:1012C0002C2001F0E4F9002200212D2001F0CFF9BB
:1012D0002D2001F0DCF901BD38B58CB004003021BF
:1012E00000226D46280001F001FA20685949884221
:1012F00010D14FF4007000905FF0004006906846F7
:1013000001F0A9FA002801D001F008FD5FF4802067
:10131000FFF75EFF0DB030BD38B58CB00400302152
:1013200000226D46280001F0E1F920684A49884210
:1013300025D101F0F5FC01F0F3FC4FF48070FFF7CC
:101340002FFF4FF4006000904FF4807008906846C3
:1013500001F081FA002801D001F0E0FCFFF727FF3F
:101360004FF48060FFF73FFF00220021032001F0CF
:101370007EF9032001F08BF9200001F075FD0DB01E
:1013800030BD30B591B00400142100226D46280014
:1013900001F0ACF93021002205AD280001F0A6F9DA
:1013A00020682E49884245D10120059000200690F2
:1013B00005A801F050FA002801D001F0AFFC4FF46D
:1013C0008040FFF71BFF0120FFF7F7FE4FF4C060DE
:1013D000009002200190012002900320039007203A
:1013E000049069465FF0904001F062FD1C4D1D487D
:1013F00028600F2068601020A8600020E86080202E
:101400002861002068610020A8610020E8610020B8
:101410002862280000F028F8002801D001F07EFCA6
:10142000E567AC6200220021242001F020F924208D
:1014300001F02DF911B030BD900000584C0000585B
:101440005000005858000058600000580024014027
:10145000000C0058001000580028004000380140DF
:10146000001400204400024010B50400002C01D1FB
:10147000012052E02168DFF8E00241181420B1FB9E
:10148000F0F080006064DFF8D4022064022084F869
:101490002500206801686FF30E11A0680143E06821
:1014A00001432069014360690143A0690143E06988
:1014B0000143206A014320680160200000F024F904
:1014C000A068B0F5804F01D100206060207910F055
:1014D0003F00A16C0860206DE16C486060680028E6
:1014E0000CD06068052809D2200000F023F9002004
:1014F000616D0860E06DA16D486005E000206065E9
:101500000020A0650020E0650020E063012084F851
:101510002500002084F82400002010BD002801D1FF
:1015200001203AE090F82510022906D00421C16379
:10153000002180F8241001202FE00168096831F0B3
:101540000E0102681160816C096831F48071826C4F
:1015500011600168096849084900026811600121A9
:1015600090F8442012F01C029140026C5160016D11
:10157000C26C5160416D002908D0416D096831F499
:101580008071426D1160C16D826D5160012180F8E2
:101590002510002180F824100020704710B5002489
:1015A00090F82510022903D00421C163012433E0FF
:1015B0000168096831F00E0102681160016809686C
:1015C0004908490002681160816C096831F4807132
:1015D000826C1160012190F8442012F01C029140AD
:1015E000026C5160016DC26C5160416D002908D0E0
:1015F000416D096831F48071426D1160C16D826D79
:101600005160012180F82510002180F82410816BA1
:10161000002901D0816B88472000C0B210BD10B5F1
:10162000016C096802681268042390F8444014F0C1
:101630001C0413FA04F4214218D0540716D501688B
:101640000968890605D40168096831F00401026857
:10165000116090F8441011F01C018B40016C4B603C
:10166000016B00294FD0016B88474CE0022390F8B2
:10167000444014F01C0413FA04F421421ED09407D1
:101680001CD501680968890608D40168096831F029
:101690000A0102681160012180F8251090F84410B9
:1016A00011F01C018B40016C4B60002180F824106C
:1016B000C16A002927D0C16A884724E0082390F82E
:1016C000444014F01C04A34019421CD011071AD541
:1016D0000168096831F00E0102681160012190F87B
:1016E000442012F01C029140026C51600121C16340
:1016F000012180F82510002180F82410416B002979
:1017000001D0416B884710BD1549426C920801EB2E
:1017100082018164017801F0FF0108391422B1FBD4
:10172000F2F1104AC264012211F01F0112FA01F114
:1017300001657047017911F03F010B4A12EB8102FC
:1017400042650A4A82650122491E11F003018A405E
:10175000C265704700000000F8FFFDBF00000240B6
:101760000008024080080240FC0802404009024094
:10177000704770477047704770470EE002684368D3
:10178000024408305FEAC37C44BF4B445B1E52F8FE
:1017900004CB43F804CB091FF9D150F8041B0029EE
:1017A000ECD170475FF0B0400068000D10F0010010
:1017B00070475FF0B040016851F4803101607047BC
:1017C0005FF0B040016831F48031016070475FF034
:1017D000B0400068400C10F0010070475FF0B0406E
:1017E000016851F48071016070475FF0B04001689A
:1017F00031F48071016070475FF0B0400068800A8A
:1018000010F001007047DFF8A0190A6832F0FE42BC
:1018100052EA00620A607047DFF89009016851F0EF
:10182000010101607047DFF8840901684908490037
:1018300001607047DFF87409016851F0040101602C
:101840007047DFF86809016831F0040101607047F2
:10185000DFF858090068400810F001007047DFF811
:101860005009016851F0010101607047DFF840093B
:1018700001684908490001607047DFF834090068D1
:10188000400810F001007047DFF82409016851F0AA
:10189000040101607047DFF81809016831F00401A4
:1018A00001607047DFF808090068C00810F0010007
:1018B0007047DFF8FC180A6832F4706252EA0022BE
:1018C0000A6070475FF0B040016851F001010160AB
:1018D00070475FF0B04001684908490001607047F7
:1018E0005FF0B0400068400810F0010070475FF002
:1018F000B0410A6832F0F0021043086070475FF0B0
:10190000B040006810F0F000B12800D3B02070475C
:10191000DFF894180A6832F47F4252EA00220A6023
:101920007047DFF8C8180A689208920010430860F0
:101930007047DFF8B808006810F00C007047DFF857
:10194000AC180A6832F0F002104308607047DFF804
:1019500008190A6832F0F002104308607047DFF897
:10196000F8180A681209120152EA10120A60704748
:10197000DFF878180A6832F4E062104308607047B4
:10198000DFF868180A6832F4605210430860704744
:10199000DFF8C808006810F0F0007047DFF8B808FA
:1019A0000068000110F0F0007047DFF8B008006830
:1019B00010F4E0607047DFF8A408006810F460508D
:1019C00070475FF0B040016851F08071016070476E
:1019D0005FF0B040016831F08071016070475FF0E6
:1019E000B0400068400E10F001007047DFF870084A
:1019F0000068C0F306207047DFF86408006810F044
:101A000060407047DFF85808006810F070007047B9
:101A1000DFF84C08006810F003007047DFF8CC07CF
:101A20000068000C10F001007047DFF82C08006817
:101A3000400C10F001007047DFF81C080068000C33
:101A400010F001007047DFF8A4070068400C10F0A8
:101A500001007047DFF894070068800C10F0010067
:101A6000704770B50400002C01D1012044E22078B9
:101A7000800655D5FFF75DFF0500FFF7C9FF002D74
:101A800003D00C2D33D1012831D1E069002801D1D8
:101A9000012031E2FFF733FF616A88421AD2606A9F
:101AA00000F088FB002801D0012025E2606AFFF7E2
:101AB0001EFF206AFFF72CFF00F048FBDFF8A41799
:101AC0000860DFF8A407006801F0E0FA002827D0DA
:101AD000012011E2606AFFF70AFF206AFFF718FF92
:101AE000606A00F067FB0028E6D0012004E2E069AC
:101AF000002828D0FFF7E6FE00F0E8FC0500FFF71D
:101B0000EFFE002806D100F0E1FC401B0328F6D3CD
:101B10000320F1E1606AFFF7EAFE206AFFF7F8FEB2
:101B20002078C00747D5FFF704FF0500FFF770FFD7
:101B3000082D03D00C2D16D1032814D1606800287D
:101B400039D10120D8E1FFF7C4FE00F0BFFC050049
:101B5000FFF7C6FE0028E3D000F0B8FC401B0328C6
:101B6000F6D30320C8E16068B0F5803F02D1FFF7EB
:101B700020FE01E0FFF724FE606800280DD000F091
:101B8000A5FC0500FFF723FE002814D100F09EFC01
:101B9000401B6528F6D30320AEE100F097FC05005A
:101BA000FFF715FE002806D000F090FC401B6528CA
:101BB000F6D30320A0E12078800712D5FFF7B9FE05
:101BC0000500FFF725FF042D03D00C2D28D1022896
:101BD00026D1E068002801D101208DE12069FFF7BE
:101BE00012FE207810F0180F00F0A1806069002824
:101BF0007DD02078C0065DD5FFF73FFE002836D1A6
:101C0000FFF72DFE00F062FC0500FFF736FE00280E
:101C10002DD100F05BFC401B0328F6D303206BE1C1
:101C2000E068002813D0FFF7D9FD00F04FFC050055
:101C3000FFF7E2FD002806D100F048FC401B032816
:101C4000F6D3032058E12069FFF7DDFDC9E7FFF770
:101C5000CCFD00F03BFC0500FFF7CEFD0028C0D016
:101C600000F034FC401B0328F6D3032044E1FFF7C7
:101C70000BFE00F02BFC0500FFF714FE002806D138
:101C800000F024FC401B0428F6D3032034E1A069B3
:101C9000FFF70FFEFFF7EAFD00F018FC0500FFF765
:101CA000ECFD002843D000F011FC401B0328F6D3C4
:101CB000032021E1FFF7D3FD00F008FC0500FFF74A
:101CC000DCFD002806D100F001FC401B0328F6D300
:101CD000032011E1FFF7DFFDFFF7E4FD002826D028
:101CE00000F0F4FB401B0428F6D3032004E1FFF7C7
:101CF000D2FD00F0EBFB0500FFF7D4FD002806D075
:101D000000F0E4FB401B0428F6D30320F4E0FFF7C7
:101D1000ADFD00F0DBFB0500FFF7AFFD002806D0AE
:101D200000F0D4FB401B0328F6D30320E4E0207826
:101D3000400748D5DFF834653068C0050ED400F0A0
:101D4000EFFF00F0C3FB05003068C00506D400F0CB
:101D5000BDFB401B0328F7D30320CDE0A06801287A
:101D600002D1FFF759FD0BE0A068052804D1FFF769
:101D700061FDFFF751FD03E0FFF755FDFFF761FD42
:101D8000A06800280FD000F0A1FB0500FFF760FD60
:101D9000002818D100F09AFB401B41F2893188429B
:101DA000F4D30320A8E000F091FB0500FFF750FDFD
:101DB000002808D000F08AFB401B41F2893188429C
:101DC000F4D3032098E0A06A002800F09480FFF785
:101DD000B0FDDFF88C542968A26A022A71D111F093
:101DE0000302E36A9A4218D111F07002236B9A42FF
:101DF00013D1C1F30622636B9A420ED111F478120B
:101E0000A36B9A4209D111F06062E36B9A4204D14C
:101E100011F06041226C91423BD00C2837D0FFF783
:101E2000D7FD00F053FB05005FF0B046306880013D
:101E300006D500F04BFB401B0328F5D303205BE0E5
:101E4000DFF81C542968DFF828040140E06A0143E8
:101E5000206B0143606B51EA0021A06B0143E06BF2
:101E60000143206C01432960FFF7ABFD286850F067
:101E70008050286000F02AFB0400306880013AD4CA
:101E800000F024FB001B0328F7D3032034E00120DB
:101E900032E05FF0B044206880012CD4FFF791FD60
:101EA000286850F08050286000F010FB0500206882
:101EB000800120D400F00AFB401B0328F7D3032045
:101EC0001AE00C2819D0FFF783FD00F0FFFA040098
:101ED0005FF0B0400068800106D500F0F7FA001B03
:101EE0000328F5D3032007E0DFF874130A68DFF84E
:101EF000840302400A60002070BD0120FCE7F8B5B1
:101F000004000D00002C01D10120DAE0DFF8686345
:101F1000306810F00700A84213D23068C008C00033
:101F20002843306000F0D2FA0700306810F0070054
:101F3000A84206D000F0CAFAC01B0328F5D303203C
:101F4000BFE02078800710D5A068FFF7F8FC00F00C
:101F5000BDFA0700FFF762FD002806D100F0B6FACF
:101F6000C01B0328F6D30320ABE02078800610D5F1
:101F70006069FFF7ECFC00F0A9FA0700FFF755FDD8
:101F8000002806D100F0A2FAC01B0328F6D30320D4
:101F900097E02078400610D5A069FFF7E0FC00F03C
:101FA00095FA0700FFF748FD002806D100F08EFAE9
:101FB000C01B0328F6D3032083E02078400710D508
:101FC000E068FFF7D5FC00F081FA0700FFF73BFD62
:101FD000002806D100F07AFAC01B0328F6D30320AC
:101FE0006FE02078000711D52069C000FFF7C8FC1A
:101FF00000F06CFA0700FFF72DFD002806D100F075
:1020000065FAC01B0328F6D303205AE02078C007E6
:1020100035D56068022805D1FFF7D9FB002819D112
:1020200001204EE06068032805D1FFF7D8FC0028A6
:1020300010D1012045E06068002805D1FFF750FC71
:10204000002807D101203CE0FFF7D6FB002801D192
:10205000012036E06068FFF764FC00F037FA070003
:10206000FFF767FC6168B0EB810F08D000F02EFA33
:10207000C01B41F289318842F2D3032021E030684D
:1020800010F00700854213D23068C008C000284312
:10209000306000F01BFA0400306810F00700A8421E
:1020A00006D000F013FA001B0328F5D3032008E044
:1020B00000F04CF8DFF8AC11086001F03BF800F0DC
:1020C000E5FFF2BD38B5FFF734FC002807D1FFF774
:1020D00016FC6A49C0F3031051F8200035E00428CB
:1020E00001D1674831E0082807D1FFF75BFB0128E1
:1020F00001D1634829E0634827E0FFF789FC022803
:1021000002D0032802D009E05D4C0EE0FFF74AFB45
:10211000012801D15A4C00E05A4C06E0FFF7EFFBD2
:102120005649C0F3031051F82040FFF75FFC05004B
:10213000FFF768FC6C430009401CB4FBF0F4FFF7A8
:102140005BFC400F401CB4FBF0F032BD10B5FFF754
:10215000B9FF0400FFF71CFC4B49C0F3031051F812
:102160002000B4FBF0F010BD10B5FFF7EFFF040046
:10217000FFF71BFC4549C0F3022011F8200010F0C6
:102180001F00C440200010BD10B5FFF7DFFF0400A2
:10219000FFF711FC3D49C0F3C22011F8200010F0F8
:1021A0001F00C440200010BD0400005890000058DB
:1021B0009400005810B5B12802D33048C46A04E036
:1021C0002E49C0F3031051F82040FFF7E7FB2E49DA
:1021D000C0F3031051F82000B4FBF0F04FF400718D
:1021E0002B4AB0FBF2F000F003F810BD08000058D5
:1021F00070B588B0050004A82649102200F0C0FF81
:1022000068462549102200F0BBFF0024002000E0B2
:10221000401C042807D204A951F82010A942F7D382
:10222000694651F82040144E3068C008C000204371
:10223000306000F04BF90500306810F00700A04254
:1022400006D000F043F9401B0328F5D3032000E03B
:10225000002008B070BD00000801005808000058B8
:102260000C0000582C1000202810002000040058FA
:102270008C80C111FCFFFFEF00400058407B00083C
:102280000024F4000048E801007B0008B47C00084A
:1022900040420F00B87D0008C87D0008BBBBE1B11B
:1022A000B2F5803F80F07E80022A1ED98C46B1FBB9
:1022B000F2F102FB11C31B0443EA1043B3FBF2FC2F
:1022C00002FB1C3380B240EA0343B3FBF2F002FB93
:1022D000103240EA0C4000237047022A05D9844698
:1022E000B0FBF2F002FB10C270474AB105D100F01A
:1022F000010249085FEA300070470022002370475E
:1023000000F082BF0B0002000021002070479042C5
:1023100071EB030CF6D3B3F5803F2FD2F0B5B3FACF
:1023200083F7B1FA81F4A7F10F0E3D1B5340CEF1B4
:10233000200602FA0EF2F3415340B5F10F0746D8DA
:102340000F3C2C444140C4F12006A040F1414140E3
:10235000B1FBF3F603FB1611A2FB0645001BA941D6
:1023600002D2761E8018594180EA010221FA0EF34A
:1023700062FA0EF200215A403046F0BD30B4B1FB93
:10238000F3FC03FB1C11A2FB0C45001BA94103D26B
:10239000ACF1010C8018594130BC02460B46604636
:1023A00000217047B2F1807F65D3F0B5B2FA82F7B1
:1023B000B1FA81F4C7F10F063D1B22FA06F307F1CB
:1023C000110EF24120355A40B5F10F07B8D94140FE
:1023D000C4F12006A040F1414140B1FBF3FC03FBF6
:1023E0001C11A2FB0C45001BA94103D2BCF1010C3E
:1023F000801859410F2F12D30F3FC90341EA5041B2
:10240000B1FBF3F603FB1611A2FB0645D4EBC0307B
:10241000A94102D2761E8018594146EACC3C07B346
:102420004140C7F12006B840F1414140B1FBF3F60D
:1024300003FB1611A2FB0645001BA94102D2761E22
:102440008018594180EA010221FA0EF3C7F12004F5
:1024500062FA0EF20CFA07F05A402CFA04F13043FB
:10246000F0BD80EA010221FA0EF3002162FA0EF2B9
:1024700060465A40F0BD8C46B1FBF2F102FB11C33D
:102480001B0243EA1063B3FBF2FC02FB1C331B028A
:102490004CEA002043EA1063B3FBF2FC02FB1C335E
:1024A0001B024CEA002043EA1063B3FBF2FC02FB80
:1024B0001C331B024CEA002043EA1063B3FBF2FC1E
:1024C00002FB1C324CEA00200023704701480068E0
:1024D000704700BF3016002080B5C0B2002808D178
:1024E000124803601248134B036092B2FDF76FFE6F
:1024F000FFE701BD80B500680E49884206D10B494F
:102500000868002801D008688047FFE701BD80B552
:1025100000680849884206D107490868002801D0A8
:1025200008688047FFE701BD00000000FC1500209F
:10253000D4110020003801400016002010F00700E0
:102540005F4B1A684FF6FF010A4052EA00225D48CD
:1025500002431A6070475A480068C0F3022070476F
:10256000010049B2002908D4012210F01F018A405D
:10257000554940B2400941F820207047010049B256
:1025800000290CD4012210F01F018A404F4940B2AB
:10259000400941F82020BFF34F8FBFF36F8F704782
:1025A000010049B2002908D4012210F01F018A401D
:1025B000474940B2400941F820207047010049B224
:1025C000002908D4012210F01F018A40414940B27D
:1025D000400941F820207047020052B2002A04D47A
:1025E00009013D4A40B2115407E009013B4A40B29B
:1025F00010F00F00104400F8041C704710B410F0E5
:102600000700D0F10703052B01D3042301E0D0F12B
:102610000703041D072C01D2002000E0C01E012486
:1026200014FA03F35B1E1940814014FA00F0401EB7
:102630001040084310BC704780B5411EB1F1807F47
:1026400001D301200EE0401E254908600F215FF0F4
:10265000FF30FFF7C1FF0020224908600720224910
:102660000860002002BD80B5FFF768FF01BD70B5AE
:1026700004000D001600FFF76EFF32002900FFF77F
:10268000BDFF0100200040B2FFF7A6FF70BD80B57E
:1026900040B2FFF765FF01BD80B540B2FFF76EFFA6
:1026A00001BD80B5FFF7C8FF02BD80B540B2FFF79E
:1026B00077FF01BD80B540B2FFF780FF01BD00008C
:1026C0000CED00E00000FA0500E100E080E100E030
:1026D00000E200E080E200E000E400E018ED00E04D
:1026E00014E000E018E000E010E000E062F30F22E8
:1026F00062F31F42401810F0030308D0C91A1FD319
:10270000DB0748BF00F8012D28BF20F8022D130079
:1027100030B414461546103928BF20E93C00FAD8D9
:10272000490728BF20E90C0048BF40F8042D890064
:1027300028BF20F8022D48BF00F8012D30BC70479B
:10274000C91818BF00F8012DCB0728BF00F8012DCC
:1027500070477047DFF83802006810F001007047DA
:10276000DFF82C020068400810F001007047DFF825
:1027700024120A6832F44042104308607047DFF8C0
:1027800018120A6892089200104308607047DFF838
:1027900008120A6832F03002104308607047DFF810
:1027A000FC110A6892089200104308607047DFF835
:1027B000EC110A6832F44062104308607047DFF899
:1027C000DC110A6803001B0913F47F239A430001FC
:1027D00010F47F20104308607047DFF8C0211368B1
:1027E000010C09048B4353EA004313607047DFF880
:1027F000AC110A6822F04042104308607047DFF8CD
:102800009C110A6832F04062104308607047DFF89C
:102810008C110A6832F04052104308607047DFF8AC
:1028200070110A6832F44072104308607047DFF894
:102830006001006810F440707047DFF854010168CF
:1028400051F4803101607047DFF84401016831F4D0
:10285000803101607047F8B5050000260024286823
:1028600000052FD5FFF7E3FF0400286A844228D033
:1028700000F056FA002C03D1286AFFF7D0FF1EE0C3
:10288000DFF80C713C68FFF7D8FFFFF7DDFF34F489
:102890004074286A04433C60FFF75CFF01280ED1B6
:1028A000FFF714FE0400FFF75BFF012807D0FFF7D6
:1028B0000DFE001B41F289318842F4D30326340017
:1028C00000E034002878C00702D56868FFF767FF8A
:1028D0002878800702D5A868FFF769FF2878C00626
:1028E00002D52869FFF779FF2878800602D5686944
:1028F000FFF773FF2878400702D5E868FFF75FFF0E
:102900002868800521D5A869B0F1804F06D0A86954
:10291000B0F1004F02D0A869002803D1A869FFF7E1
:1029200066FF08E0AE6936F080560020FFF75FFFD3
:102930003000FFF764FFA869B0F1C05F05D1DFF890
:102940006000016851F080710160286840050CD575
:10295000E869FFF75CFFE869B0F1005F05D1DFF8D7
:102960004000016851F4803101602868C00402D53C
:10297000686AFFF7FCFE2868800405D5E86AFFF75F
:1029800006FFA86AFFF7FBFE2000C0B2F2BD000000
:102990009000005894000058240000588800005807
:1029A0000C000058010049B2002908D4012210F09F
:1029B0001F018A40BE4940B2400941F820207047BB
:1029C000BC490A6832F0180210430860704781B0B1
:1029D000B9490A6802430A600968084000900098F3
:1029E00001B0704781B0B5490A6802430A600968BE
:1029F00008400090009801B07047FF214162704785
:102A0000CA2141625321416270478268D208D200D4
:102A100011438160704780B500F076FB00F02EFC1A
:102A200000F015F800F053F800F0C5F800F06EF96A
:102A300000F05CF900F0D7F800F001F900F0C6F8FA
:102A400000F060F800F024FC00F0F7FCFCE710B5A3
:102A500098B04421002207AC2000FFF747FE1C215C
:102A600000226C462000FFF741FE00F059F90020DB
:102A7000FFF7A6FF072007905FF480300890012041
:102A800009904FF480700A9040200B900020119024
:102A900007A8FEF7E6FF002801D000F03FF96F20FD
:102AA000009002200190002002900020039000205E
:102AB0000490002005900020069001216846FFF751
:102AC0001EFA002801D000F029F918B010BD10B589
:102AD0008CB0302100226C462000FFF707FE4FF437
:102AE000405000904FF48040099002200A9010203E
:102AF0000B906846FFF7AFFE002801D000F00EF9FA
:102B00000CB010BD1FB50C2100226C462000FFF751
:102B1000EDFD6B4C6B482060002060600020A060E1
:102B20000020E060002020610420606107206063D5
:102B30000720A063002020760020A0760120E0611D
:102B4000002084F82000002060620020A0620020A5
:102B500084F82C0000202063200000F09AFD00285B
:102B600001D000F0DBF81220FFF71CFF002200214B
:102B70001220FFF77CFD54480090002001900020B7
:102B800002906946200000F0EDFF002801D000F01F
:102B9000C5F80021200001F0C8F9002801D000F09C
:102BA000BDF81FBD80B5464800F084FE002801D066
:102BB00000F0B4F801BD80B544484549016001F01A
:102BC00065FA002801D000F0A9F801BD80B54148A0
:102BD000414901600021416001F096FA002801D0CE
:102BE00000F09CF801BD38B53C4C3D4D25600020FF
:102BF00060600F20A06047F6FF70E0600020206159
:102C00000020A06100206061200001F0A1FA0028EE
:102C100001D000F083F800220021200000F088F8A5
:102C2000002801D000F07AF82800FFF7E9FE002123
:102C30002800FFF7EAFE2800FFF7DFFE31BD10B5E0
:102C4000284C294820605FF4E13060600020A060DB
:102C50000020E060002020610C2060610020A06165
:102C60004FF40040E06100202062002060620020FC
:102C7000A0622000FDF76CFA002801D000F04EF8A9
:102C80000021200001F046FB002801D000F046F8AA
:102C90000021200001F068FB002801D000F03EF880
:102CA000200001F015FB002801D000F037F810BD1E
:102CB00000E100E090000058480000584C00005827
:102CC0006014002000240140001000B0B414002063
:102CD000000C00588815002000100058F014002047
:102CE00000280040D41100200038014080B50420A5
:102CF000FFF76DFE0120FFF76AFE00220F210E2074
:102D0000FFF7B5FC0E20FFF7C2FC01BD80B5042023
:102D1000FFF768FE0120FFF765FE01BDFEE7704783
:102D20000248016851F48071016070470004005846
:102D300078B403004FF47A744A4D286840094FF480
:102D40007A76B0FBF6F06043009093F820000128FB
:102D500001D102207FE0012083F82000022083F8C7
:102D60002100CA201E68706253201E6870621868B5
:102D70008068400515D50098401E009000980028F6
:102D800004D01868C0684007F5D40AE0FF2019682D
:102D90004862032083F82100002083F820000320EC
:102DA00059E01868806830F480601E68B060186868
:102DB000C06810F0800070F490601E68F0602868B1
:102DC00040094FF47A75B0FBF5F004FB00F4009471
:102DD0000098401E00900098002804D01868C06831
:102DE0004007F5D50AE0FF2019684862032083F800
:102DF0002100002083F8200003202CE01868806860
:102E0000C008C0001C68A060186880680243186889
:102E10008260186841611148016851F40021016025
:102E20000F48016851F4002101601868806850F46F
:102E30008040196888601868806850F4806019685C
:102E40008860FF2019684862012083F82100002073
:102E500083F82000002072BC7047000080080058F2
:102E6000000800582C10002090F82010012901D1F2
:102E700002201BE0012180F82010022180F821109F
:102E8000CA2102685162532102685162016889684F
:102E900051F0200102689160FF2102685162012116
:102EA00080F82110002180F82010002070470000D9
:102EB000F0B40200002431E0072703E06A4B9A4295
:102EC000FAD1042714F00303DBB29B009F403D437B
:102ED00023009B0846F82350644D2B6883434E68BB
:102EE000F60200D503432B60614D2B6883434E6887
:102EF000B60200D503432B605E4D2B6883434E68BA
:102F0000F60300D503432B605B4D2B6883434E686B
:102F1000B60301D5184303002B60641C0868E04029
:102F2000002800F0888001260B6816FA04F018408B
:102F30000028F2D00B7913F00303012B04D00B7996
:102F400013F00303022B16D1956803272300DBB28D
:102F50005B009F40BD43CF682300DBB25B009F4016
:102F60003D4395605368A640B3434D68C5F30015D3
:102F7000A5402B4353600B7913F00303032B0DD0B3
:102F8000D56803262300DBB25B009E40B5438E6804
:102F90002300DBB25B009E403543D5600B7913F014
:102FA0000303022B17D12300DB0802EB83031D6A06
:102FB0000F2614F00703DBB29B009E40B5430E6959
:102FC00014F00703DBB29B009E4035432300DB086F
:102FD00002EB83031D62156803262300DBB25B004E
:102FE0009E40B5430E7916F003062300DBB25B006A
:102FF0009E40354315604B6813F4403F8DD01F4E03
:1030000023009B0856F823500F2714F00303DBB26C
:103010009B009F40BD43B2F1904F01D1002751E783
:10302000174B9A4201D101274CE7164B9A427FF485
:1030300045AF022746E7F0BC7047D2B2002A02D063
:1030400089B2816101E089B28162704780B50E4921
:103050000A6803009BB21A4205D0020092B20A60CD
:1030600080B200F006FA01BD0010004800080058C8
:1030700004080058800800588408005808000140DF
:1030800000040048000800480C08005870B504000F
:103090000025124E307800281BD0FFF757F84FF468
:1030A0007A713278B1FBF2F1B0FBF1F0FFF7F9FA87
:1030B00000280CD1102C08D2002221005FF0FF3034
:1030C000FFF7D5FA0648046004E0012502E0012577
:1030D00000E001252800C0B270BD00BF3010002004
:1030E0002810002015480168490849000160704710
:1030F0001248016831F00201016070470F48016811
:1031000031F004010160704710B500240C480168DB
:1031100051F4807101600320FFF7A5FA0020FFF74A
:10312000B5FF002801D0012401E0FEF778F8200067
:10313000C0B210BD0348006870470000042004E0DE
:10314000004000582810002080B5FFF7CBFF01BDDC
:1031500080B5FFF7CDFF01BD80B5FFF7CFFF01BD03
:1031600062B38B0708D0521E11F8013B00F8013BF7
:1031700000F024808B07F6D1830740F0208000BF49
:10318000103A07D330B4B1E83810103AA0E838103C
:10319000F9D230BC530724BFB1E80810A0E80810EA
:1031A00044BF51F8043B40F8043BD20724BF31F838
:1031B000022B20F8022B44BF0B7803707047121FBC
:1031C00017D35B0009D151F8043B20F8023B1B0CDC
:1031D000121F20F8023BF6D20BE051F8043B00F836
:1031E000013B1B0A20F8023B1B0C121F00F8013B9D
:1031F000F3D238BF121D521E24BF11F8013B00F854
:10320000013BF8D87047000070470000DFF81C133E
:103210000A68D208D200104308607047DFF8101324
:103220000A68104308607047DFF80813DFF80823C6
:103230000A600A6832F47C5252EA00220A6070473F
:10324000BE490A6832F40042104308607047BC4827
:1032500000680005000D7047B9480068000C704711
:10326000FF2141627047CA21416253214162704788
:103270008268D208D20011438160704780B54FF454
:103280000040B049086000F021F800F020F801BDCE
:1032900080B500F026F800F039F8AB49002001F0C5
:1032A00043FB01F0FBFC0121012001F0F0FD00F0E7
:1032B000C2F800F0C1F800F0DDF800F034F801BD0C
:1032C000704780B55020FFF7A9FF01BD704780B55A
:1032D000002001F019FE002802D08079FFF7A4FF3A
:1032E00001BD80B5FFF7ECFFFFF7EBFF00F001F841
:1032F00001BD10B5954C2000FFF7B5FF002120005F
:10330000FFF7B6FF2000FFF7ABFF10BD80B54FF40D
:103310000040FFF795FF01F09DFD0420FFF776FFC9
:1033200001F00FFE01BD80B588B001F033FE884A80
:1033300000214FF4006002F02CF8864800900FF254
:103340003100019069460FF22D0002F0A1F8824889
:103350000290824803908248049040F23C500590CD
:1033600002A801F0C5FE01F011FE09B000BD000089
:10337000704700001FB5040060680B3000884FF4F0
:103380001241401A0CD0401E11D0401E13D0801E96
:1033900012D0401E11D0401E10D0401E0FD00FE0A2
:1033A000684602F067F9200000F00FF808E02000FE
:1033B00000F007F804E003E002E001E000E0FFE7CE
:1033C0001FBD40680B30801C704738B584B00400C6
:1033D000102100226D462800FFF788F90020002008
:1033E00060680B30811C087800281DD101F088FC32
:1033F0000F208DF800007F208DF80200FFF72CFFD2
:10340000ADF80C00FFF723FFADF80E00684602F0A0
:1034100025F902F09AF90021022001F038FD00217F
:10342000012001F034FD04E00878012801D10020DA
:10343000207005B030BD7047704780B55FF0FF3039
:1034400001F012FF01BD80B501F037FD01BD7047ED
:1034500080B500214FF4006001F0A8FF01BD80B5E8
:10346000022001F0CAFF01BD80B5022001F0CFFFAC
:1034700001BD704780B50FF21103012239490020C8
:10348000FFF72AF801BD000010B5374C2088B0F5D1
:10349000807F16D2334801780D290BD100F018F83F
:1034A000002020804FF480710022304C2000FFF774
:1034B0001DF906E000782D49228888542088401C98
:1034C00020802B4B012227490020FFF705F810BD73
:1034D00010B5264C12A1200002F0BEFB002805D139
:1034E00024482549016002F0C1FB17E00DA120002E
:1034F00002F0B2FB002806D11E485FF0B051016017
:1035000002F0B4FB0AE008A1200002F0A5FB0028AD
:1035100004D118481949016002F0A8FB10BD000051
:10352000535731005357320053573300800400582B
:10353000900800589C000058FECAFECA08000058B7
:10354000002004E010400058F01400200028004043
:10355000AD5400087805032090070320840603205B
:103560003C000320BC150020581600203410002019
:1035700089340008B415002004000016010000166C
:10358000826832F0E072114381607047806810F009
:10359000E070704730B44469072511F004039D4082
:1035A000AC4311F0040112FA01F12143416130BC36
:1035B0007047C06810F4406F01D1012000E0002086
:1035C000704730B4846A0F2511F01F039D40AC434F
:1035D000C2F3836211F01F0112FA01F121438162EB
:1035E00030BC7047826A4903490B114381627047BE
:1035F000826A4903490B32EA010181627047C0685F
:1036000010F003007047436933EA012312EA0122F4
:10361000DFF8F8160A401A43426170478268DFF803
:10362000F0160A4052F08052826070478068000FA6
:1036300010F0010070478268DFF8D4160A4052F09B
:103640000102826070478268DFF8C4160A4052F0B7
:10365000020282607047806810F001007047806845
:10366000400810F0010070478268DFF8A4160A4095
:1036700052F00402826070478268DFF894160A40B4
:1036800052F01002826070478068800810F00100DC
:103690007047F8B5040000250026002000900027A0
:1036A000002C01D1012004E12069002802D020690A
:1036B000B0F5001FA06C002807D12000FDF7BDFD6C
:1036C0000020E064002084F844002068FFF7AEFF8B
:1036D000002813D12068FFF7A1FFDFF82807006852
:1036E000DFF82417B0FBF1F0401C4000009002E02E
:1036F0000098401E009000980028F9D12068FFF73C
:1037000095FF002808D1A06C50F01000A064E06C78
:1037100050F00100E06401252068FFF7B5FFA16CBF
:10372000C90600F1BF80002840F0BC80A06C30F4D6
:10373000807050F00200A0642068FFF78CFF002822
:1037400028D12068C16831F01801A06801432068C1
:10375000C160606810F040400743E06B0743206899
:10376000006920F060400743206807616068B0F19D
:10377000404F0FD06068B0F1804F0BD06068B0F15F
:10378000004F07D0DFF884066168890C026861F396
:1037900095420260206B002802D04FF4805000E078
:1037A00000202169002903D5216921F0004101E0B1
:1037B0005FF40011227E56EA8236627E56EAC236F5
:1037C000A27E56EA42360643E06806430E4394F86A
:1037D0002C0056EA400694F8200001280DD1A07E66
:1037E000002802D156F4803607E0A06C50F020008B
:1037F000A064E06C50F00100E064606A002806D02C
:10380000606A10F4E07006433000A66A0643206840
:10381000C168DFF8FC05014031432068C160626B7C
:1038200000212068FFF7B6FEA26BDFF8E8152068DC
:10383000FFF7B0FE2069002806D12068806A70F08A
:103840000F002168886212E02069B0F5001F0ED1D8
:103850002068806A7FF00F01E069401EC0B28000DE
:1038600010F01F008140206D0143206881622068B4
:10387000C168DFF8A4050140B14207D10020E0642F
:103880000120A16C60F30101A16410E0A06C30F094
:10389000020050F01000A064E06C50F00100E06401
:1038A000012504E0A06C50F01000A0640125280060
:1038B000C0B2F2BD38B50400002C01D1012059E09E
:1038C000A06C50F00200A0640121200000F022FA58
:1038D00005002800C0B2002809D1200000F0B4FA89
:1038E00005002800C0B2002801D10120A064206892
:1038F0004168DFF8280501402068416040F29F30B0
:10390000216808602068C168DFF81405014020685C
:10391000C1602068006920F040402168086120688B
:103920004069C008C000216848612068006A10F042
:10393000F020216808622068806A0020216888627F
:10394000DFF8E004FFF787FE002805D1DFF8BC04AC
:10395000016831F0FE7101602000FDF796FC002047
:10396000E064002020650020A064002084F844006A
:103970002800C0B232BD38B504002068FFF784FECD
:10398000002846D194F84400012801D1022043E0E8
:10399000012084F84400200000F0E3F9050028002D
:1039A000C0B2002831D1A16CDFF87C04014051F491
:1039B0008071A1640020E0641C2021680860002060
:1039C00084F844002068406830F01C00216848609A
:1039D0006069082806D12068406850F00800216816
:1039E000486005E02068406850F0040021684860A5
:1039F000206B002805D12068406850F01000216835
:103A000048602068FFF730FE04E0002084F844009E
:103A100000E002252800C0B232BDF8B50400002540
:103A20002068066820684768B0070ED5B8070CD52F
:103A3000A06CC00603D4A06C50F40060A064200009
:103A400002F024F9022021680860700701D5780788
:103A500003D430073AD5380738D5A06CC00603D454
:103A6000A06C50F40070A0642068FFF7A2FD00284D
:103A700026D02068C068800422D42068006800072F
:103A80001ED52068FFF700FE002811D1206840688D
:103A900030F00C0021684860A06C30F48070A064A5
:103AA000A06CC0040CD4A06C50F00100A06407E02E
:103AB000A06C50F01000A064E06C50F00100E064D5
:103AC000200002F00AFA0C202168086030060BD5AD
:103AD000380609D5A06C50F48030A064200002F0B4
:103AE00033FA802021680860F0050CD5F8050AD566
:103AF000A06C50F40030A064200002F026FA4FF4CD
:103B0000807021680860B0050CD5B8050AD5A06C96
:103B100050F48020A064200002F018FA4FF40070E6
:103B200021680860F0061CD5F8061AD5206B00281D
:103B300001D1012505E02068FFF761FD002800D0D4
:103B40000125012D0AD1A06C50F48060A064E06CC6
:103B500050F00200E064200002F0F9F91020216822
:103B60000860F1BDF8B504000E00002500200090AB
:103B70002069B0F1004F04D02069DFF8B01288420C
:103B800000D1FFE794F84400012801D10220BBE0F6
:103B9000012084F844002068FFF776FD002840F0FB
:103BA000A9807068022872D02069B0F1004F04D05B
:103BB0002069DFF87812884204D131682068FFF765
:103BC00011FD23E03068400303D13068C0F3846006
:103BD00004E0306890FAA0F0B0FA80F0216D0F2276
:103BE000337913F01F039A409143327912F01F0288
:103BF000904008432065E06971688908491C884243
:103C000004D3326871682068FFF7DBFCB268316862
:103C10002068FFF7F8FC3068854908426FD0854F6F
:103C20003800FFF7B3FC01003068834A904216D198
:103C3000080214D451F400013800FFF7A1FC7148C8
:103C400000687149B0FBF1F1491C0C20414300911F
:103C50000098002853D00098401E0090F8E7306884
:103C6000764A904207D1C80105D451F080713800DE
:103C7000FFF786FC43E03068714A90423FD148022A
:103C80003DD451F480013800FFF77AFC37E0206919
:103C9000B0F1004F03D020696449884203D13168F4
:103CA0002068FFF7A5FC30686149084227D0614FC2
:103CB0003800FFF76BFC010030685F4A904205D185
:103CC00031F400013800FFF75BFC18E030685B4A14
:103CD000904205D131F080713800FFF751FC0EE0C1
:103CE0003068574A90420AD131F480013800FFF71A
:103CF00047FC04E0A06C50F02000A06401250020E7
:103D000084F844002800C0B2F2BD000000FFFF07A5
:103D1000E8FFFF7F38B504002068FFF7B5FC0028F6
:103D20001DD02068FFF79BFC002802D12068FFF718
:103D3000A3FCFEF7CBFB05002068806840070ED58A
:103D4000FEF7C4FB401B0628F6D3A06C50F0100011
:103D5000A064E06C50F00100E064012000E000206D
:103D600032BD38B50400002000902068FFF773FCD6
:103D7000002845D1206880683249084209D0A06CEB
:103D800050F01000A064E06C50F00100E0640120ED
:103D900037E02068FFF74FFC2648FFF7F7FB0002EB
:103DA0000DD5184800681849B0FBF1F0401C009090
:103DB00002E00098401E009000980028F9D1607E33
:103DC00001281DD0FEF782FB050020680068C007AF
:103DD00016D42068FFF73FFC002802D12068FFF7C7
:103DE0002AFCFEF773FB401B0328EED3A06C50F0B7
:103DF0001000A064E06C50F00100E064012000E0DD
:103E0000002032BD2C100020400D03000827014087
:103E10001902DEFF04FFFF07E7FF3F8360FCFFFF9F
:103E200000021E8300240140FEF1FFFF0400008019
:103E30000000088000270140001000B0004000B8DA
:103E4000002000B41700008038B505002868FFF78F
:103E500006FC04002868FFF7FEFB002831D0002C88
:103E60002FD12868806810F0050001281FD128682C
:103E7000FFF7E9FB032029680860FEF727FB040031
:103E800028688068C0071CD5FEF720FB001B0328AC
:103E9000F6D328688068C007F2D5A86C50F01000EF
:103EA000A864E86C50F00100E86401200AE0A86C06
:103EB00050F01000A864E86C50F00100E8640120A4
:103EC00000E0002032BD0000806810F470107047E0
:103ED000006910F040407047D0F8B420D209D201F8
:103EE0001143C0F8B4107047D0F8B40010F07F0050
:103EF0007047826861490A4052F00102826070474F
:103F000082685E490A4052F002028260704780680F
:103F100010F001007047826858490A4052F0004290
:103F2000826070478068C00F70472DE9FC41040033
:103F300000270020009094F84400012801D10220BD
:103F400099E0012084F844002000FFF77DFF06007F
:103F50003000C0B2002840F08580A06C30F4807042
:103F600050F00200A0642068C06848F203050540D4
:103F70002068C168424801402068C1605FF00008C5
:103F800005E02068FFF7B0FFC71918F10108B8F184
:103F9000080F19D22068FFF7BEFF2068FFF7C2FFA5
:103FA0000028EED00098401C0090009835498842C7
:103FB000F3D3A06C30F0020050F01000A064002099
:103FC00084F84400012056E0B7FBF8F72068FFF7BB
:103FD00090FF2068FFF77CFF002815D12A48FFF7E3
:103FE00073FFB0F5E01F0FD30121800CC01E11FA42
:103FF00000F0009000984008009002E00098401EF9
:10400000009000980028F9D139002068FFF764FF7C
:104010002068FFF775FFFEF759FA07002068FFF7E1
:1040200076FF002813D0FEF751FAC01B0328F5D302
:104030002068FFF76CFF0028F0D0A06C50F0100053
:10404000A064E06C50F00100E064012013E02068FF
:10405000C06805432068C5600120A16C60F30101C0
:10406000A16403E0A06C50F01000A064002084F86C
:1040700044003000C0B2BDE8F6810000E8FFFF7FD9
:10408000FC7FFFFFAB6A02000027014070B504000F
:104090000025002C17D0154E94F83800002802D1C6
:1040A0002000FDF7FFF8300000F026F8306850F0EF
:1040B00001103060200000F00AF800206063012049
:1040C00084F8380000E001252800C0B270BD00214E
:1040D00008E0084A00EB81035A60054A00EB8103BF
:1040E000DA61491C0629F4D370470000000C00581F
:1040F0001F2D000853270008002101605FF03F11C9
:1041000041603F218160704710B50400002C01D14F
:1041100001201CE0607A002804D1002020722000D9
:10412000FDF7DAF8022060722068016831F02001A2
:1041300060680143206801602068006850F0040056
:1041400021680860012060720020E060002010BD3E
:1041500010B504000120002C01D1012058E094F892
:104160002100002805D1002084F820002000FDF760
:10417000D3F8022084F821002068C068C0063ED42D
:10418000CA2021684862532021684862200000F05C
:104190005DF80100C9B200291DD120688168DFF8EF
:1041A000A400014020688160206881686068014344
:1041B00020690143A069014320688160E0682168AB
:1041C000086120680069A16850EA0140216808611F
:1041D000200000F063F80100C9B200290BD121686A
:1041E000C96C31F002012268D1642168CA6C61692E
:1041F0000A432168CA64FF212268516200E000205E
:104200000100C9B2002902D1012184F82110C0B2F5
:1042100010BD38B5040000200B482168C860FEF7C7
:1042200055F905002068C068800608D4FEF74EF9ED
:10423000401B40F2E9318842F4D3032000E0002023
:1042400032BD0000BFFF8FFF5F5F010070B504004B
:10425000002000262068C06840061CD42068C06882
:1042600050F080002168C860FEF730F905000AE0D0
:10427000FEF72CF9401B40F2E931884203D30420B9
:1042800084F8210001262068C068400603D430006D
:10429000C0B20128ECD13000C0B270BD38B5040006
:1042A00000252068C06830F080002168C860206860
:1042B0008068800608D42000FFF7ABFF002803D0F9
:1042C000042084F8210001252800C0B232BD00007E
:1042D00090F88410012901D102201AE0012180F810
:1042E00084102421C0F888100168096802681268E7
:1042F0005208520003681A6031F0005100224266F1
:10430000026811602021C0F88810002180F8841014
:104310000020704738B5040094F88400012801D1CA
:10432000022020E0012084F884002420C4F88800C2
:104330002068056820680068400840002268106016
:104340002068806820F06040014320688160200080
:1043500000F034F8206805602020C4F888000020B0
:1043600084F88400002032BD38B5040094F884003D
:10437000012801D1022020E0012084F884002420BB
:10438000C4F888002068056820680068400840007C
:10439000226810602068806830F060600143206807
:1043A0008160200000F00AF8206805602020C4F831
:1043B0008800002084F88400002032BDF0B4416EF3
:1043C000002906D10121A0F86A100121A0F8681087
:1043D00021E00822082501688B685B0E13F00703B3
:1043E00001688E68760F0D4C0D4FEDB23100C9B2E9
:1043F000795C4D43F6B2A15D95FBF1F1A0F86A102E
:10440000D2B21900C9B2795C4A43DBB2E15C92FBDB
:10441000F1F1A0F86810F0BC704700000C7E0008B5
:10442000047E0008DFF8F8170A6810430860704738
:10443000DFF8F0170A68104308607047DFF8E827D4
:10444000116889B2106880B202E00100106880B281
:104450008142FAD1704730B41823DFF8D0470A0000
:10446000D2B25A432244527D1500EDB2062D04D03B
:104470001500EDB25D43254428750500EDB25D439E
:1044800025446A750200D2B25A4322441175C9B25A
:1044900059432144487530BC704730B40A00DFF8F6
:1044A00090371B78D2B29A421BD01823DFF87C4792
:1044B0000A00D2B25A432244127D1500EDB25D4388
:1044C000254468750500EDB25D4325446975050016
:1044D000EDB25D4325442A75C9B25943214408759C
:1044E0000BE01822DFF844370400E4B254431C44C4
:1044F0006175C9B251431944087530BC7047F8B5AD
:104500000400DFF82C673078062814D13078DFF803
:104510002417087034700621DFF81027E4B2182041
:10452000444302EB040041755FF0FF30DFF80817E9
:104530000860002547E000F099F805001822DFF830
:10454000EC362000C0B2504318442100C9B2514398
:104550001944896811FA85F181602000C0B2504386
:10456000184480683178C9B2514319448968884237
:104570001FD331780E00F6B256431E44767D08E014
:10458000C9B251431944497D0E00F6B256431E4448
:10459000767D3700FFB2062F05D0F6B256431E4493
:1045A000B668B042ECD2C9B22000C0B2FFF753FFE8
:1045B00009E031782000C0B2FFF76FFF3078DFF8F4
:1045C000741608703470280080B2F2BDF0B4DFF8C1
:1045D000603602001C78D2B2A2420ED11A78DFF8FF
:1045E00054462270DFF844460500EDB218225543C8
:1045F00004EB0502527D1A7023E01824DFF82C56D4
:104600000200D2B262432A44167D0200D2B2624353
:104610002A44527DF6B266432E440700FFB2674338
:104620002F447F7D77751600F6B2062E09D0D2B2E0
:1046300062432A440600F6B204FB06F42C44247DAF
:1046400014750124DFF8E455C0B218225043284401
:1046500004731878062807D1C9B2002904D15FF085
:10466000FF30DFF8D4150860F0BC704710B5DFF8F4
:10467000C845206810F1010F16D0FFF7DFFE216852
:10468000814202D32168081A05E0DFF8B0150988D5
:10469000081A21684018DFF8A81509784843DFF8A0
:1046A000A4150978C84000E0002080B210BD38B5DC
:1046B0000400200080B2002808D1FFF7BFFEDFF819
:1046C000781508600320FDF7F0FF32E0200080B28B
:1046D000022804DADFF86C050078012800D0641E97
:1046E000DFF864552868C0684007F9D52868C068B5
:1046F00010F0800070F490602968C8605FF40020BA
:10470000DFF8481508600320FDF7D4FFDFF8400507
:10471000016864F30F010160FFF790FEDFF81815E0
:1047200008602868806850F4806029688860AFF36A
:10473000008031BDF8B5DFF81C050068400505D5DF
:10474000DFF804050068C0684007F9D4DFF8F80412
:104750000168896831F4806100688160DFF8D00405
:1047600004781826DFF8C4742000C0B270433844BF
:104770008568FFF77BFF010089B28D4205D20025D5
:104780000121DFF8D424117035E0DFF8D0140A8855
:1047900012FA80F2AA4205D20D880021DFF8B8246F
:1047A000117028E02D1A0121DFF8AC24117022E0ED
:1047B0002100C9B2714307EB01022100C9B2714364
:1047C00039448B68010089B25B1A93600EE02100C6
:1047D000C9B2714339448968020092B29142E7D26A
:1047E0002100C9B27143394400228A60E4B27443A3
:1047F00007EB04014C7D2100C9B20629E7D128004E
:1048000080B2FFF754FFF1BD2DE9F047EFF31087B9
:1048100072B6DFF83484CA20D8F8001048625320FA
:10482000D8F800104862D8F80000806830F4806042
:10483000D8F800108860DFF8F80306785FF01809F0
:10484000DFF8E8A33000C0B209FB00F05044007B61
:1048500002284DD13000C0B209FB00F05AF80040E8
:104860003000C0B209FB00F050440569DFF8E803EE
:104870000078002837D03000C0B209FB00F0504467
:10488000407B01281AD101213000C0B2FFF79EFE03
:1048900087F310883000C0B209FB00F90AEB090069
:1048A00041683000C0B200F062F9CA20D8F80010A8
:1048B00048625320D8F8001048620DE087F3108852
:1048C0003000C0B200F0FDF8CA20D8F800104862ED
:1048D0005320D8F80010486222003100C9B22800E5
:1048E00001F036FB1AE0FFF725FF87F3108815E08B
:1048F000D8F80000C0684007FAD5D8F80000C068B2
:1049000010F0800070F49060D8F80010C8605FF478
:104910000020DFF83813086087F31088FF20D8F8EC
:1049200000104862BDE8F08738B50400DFF818537E
:10493000CA2029684862532029684862DFF81413A6
:10494000086850F020000860BE48096811F00701AF
:10495000D1F104010170BA49C14A13681B0C13F06C
:104960007F035B1C0B70B54B12685204520C521C37
:104970001A801A88521E097801FB02F1B1F5A07164
:104980000078C1404FF6FF70814202D3B3490880DE
:1049900001E0B24801805FF40020FFF749FD5FF4B9
:1049A0000020FFF73FFDE4B2002C36D10120AA49D8
:1049B00008705FF0FF30A0490860002109E0002284
:1049C0009A4B0C00E4B21820444303EB040002733A
:1049D000491C0800C0B20628F1DB06209449087083
:1049E000994D2868806830F480602968886028685C
:1049F000C06810F0800070F490602968C8605FF4AF
:104A00000020924908600320FDF754FE2868806862
:104A100050F480402968886006E02868C068400536
:104A200002D50320FDF741FEFF20296848620022DD
:104A300003210320FDF71BFE0320FDF728FE31BDF7
:104A4000F0B504000025EFF3108672B600E06D1C8F
:104A50002800C0B206280BDA744FAC465FFA8CFC13
:104A6000182000FB0CFC07EB0C00007B0028EED1AB
:104A70002800C0B206281FD018206C4FAC465FFA41
:104A80008CFC00FB0CFCBC445FF0010E8CF80CE0CD
:104A900086F310882E00F6B246433E4434612C0063
:104AA000E4B244433C4462732A00D2B200FB02F0F9
:104AB0003B500D70002002E086F310880120C0B248
:104AC000F0BD70B50400EFF3108572B60320FDF75A
:104AD000E3FD5D4ECA203168486253203168486268
:104AE00052492200D2B21820424301EB0200007B5F
:104AF000022833D100212000C0B2FFF767FD4C48E7
:104B000000780100C9B2062921D152480068400549
:104B100003D53068C0684007FBD43068806830F443
:104B20008060316888603068C0684007FBD53068B5
:104B3000C06810F0800070F490603168C8605FF465
:104B40000020424908600320FDF7B4FD06E0394922
:104B50000978C0B2814201D0FFF7ECFDFF20316837
:104B600048620320FDF793FD85F3108870BD2DE9A1
:104B7000F8430400894618262C4F2000C0B2704329
:104B80003844007B022803D12000C0B2FFF799FF10
:104B9000EFF3108572B60320FDF77EFDDFF8A880E5
:104BA000CA20D8F8001048625320D8F80010486294
:104BB0002000C0B270433844022101732000C0B20B
:104BC00070433844C0F808902000C0B270433844A5
:104BD000C0F804902000C0B2FFF791FC1449097896
:104BE000144A1278C9B28A4202D0FFF7A3FD0BE043
:104BF0002100C9B271433944E4B2744307EB0402A3
:104C0000926880B2101A8860FF20D8F800104862BD
:104C10000320FDF73CFD85F31088BDE8F18300001B
:104C2000800800580008005828280040681200201A
:104C30006116002062160020F81500205A16002088
:104C40006516002064160020F01400200C0800589F
:104C50001428004008280040631600205C1600203D
:104C60001028004081B074490A6802430A6009684C
:104C700008400090009801B070476F490A6832EA16
:104C800000000860704781B06C490A6802430A60FE
:104C9000096808400090009801B0704718B585B0C9
:104CA000142100226C462000FDF720FD0020029018
:104CB000032001904FF4604000900120FFF7D2FFE5
:104CC00069465FF09040FEF7F3F80120FFF7D5FF4B
:104CD000182000900220FFF7C5FF69465848FEF7EC
:104CE000E7F80220FFF7C9FFFEF72EFAFEF730FAC9
:104CF000FEF732FA00F012F800F0AAF806B010BD84
:104D000000B587B068464F491C22FEF739FA00F01B
:104D100034FA684600F095FC07B000BD78B585B060
:104D2000142100226C462000FDF7E0FC0024002541
:104D30000026002107E005E00800C0B202EBC00039
:104D400080880643491C0800C0B2262823DA3E4A60
:104D50000800C0B202EBC00080790028F2D0080041
:104D6000C0B252F83000B0F1904F06D0344B9842A8
:104D70000AD0364B9842DFD0DDE70800C0B202EB24
:104D8000C00080880443DDE70800C0B202EBC00029
:104D900080880543D6E7002002900120019003207F
:104DA0000390200080B2002814D0200080B2009030
:104DB0000120FFF757FF0120FFF765FF69465FF00D
:104DC0009040FEF775F80022210089B25FF0904014
:104DD000FEF733F9280080B2002813D0280080B2F3
:104DE00000900220FFF73EFF0220FFF74CFF144C1B
:104DF00069462000FEF75CF80022290089B22000F5
:104E0000FEF71BF9300080B2002813D0300080B2CA
:104E100000900420FFF726FF0420FFF734FF0B4C1F
:104E200069462000FEF744F80022310089B22000D4
:104E3000FEF703F906B070BD4C0000584C01005855
:104E4000000400481C7D00088C7800080008004819
:104E500070470000002029490860002028490860A8
:104E60007047EFF3108272B6C9B2002906D001294B
:104E70000AD122490B681843086005E01F490B68F6
:104E800033EA00000860FFE782F310887047EFF311
:104E9000108272B6C9B2002906D001290AD1184978
:104EA0000B681843086005E015490B6833EA0000F9
:104EB0000860FFE782F31088704738B5EFF310847D
:104EC00072B60E480068002805D00E4D286880474D
:104ED000686880470EE00A480068002805D0094D40
:104EE000A8688047E868804704E0064D2869804745
:104EF0006869804784F3108831BD000018160020CF
:104F00001C160020547D00080100084800E0083805
:104F1000C2790B00DBB29A4202D0054A9042F6D128
:104F2000C279C9B28A4200D000207047F873FF1FCF
:104F30000070FF1FDFF84800016851F40071016044
:104F4000704780B5FFF7F6FF01BD0E4909680122E1
:104F500010F01F0012FA00F008407047012210F014
:104F60001F018A4008490A600649096810F01F00BD
:104F7000C140C80701D5012000E0002070470000B3
:104F800008040058100400581804005880B501F0B7
:104F90008FF801BD80B58648864901608649416029
:104FA0008649816086490162864941628649C160BD
:104FB0008649016186494161864981618649C161AD
:104FC00001F088F801BD38B50400844D280001F0D7
:104FD0004BF977484068A1680160E168C160804989
:104FE0004160856001F09EF820687E490860606835
:104FF0007D490860002032BD80B56D4801214268BE
:105000001268117240680168012000F0FDF801F09B
:1050100094F8002002BD1CB518E00099032000F0B0
:10502000F3F80FE06946200001F052F90098407A49
:105030000F2803D00098407A0E28EED10099022064
:1050400000F0E2F80098674909688847634C20003F
:1050500001F00DF90028E5D013BD80B56248006865
:10506000804701BD38B50400604D280001F0FCF810
:105070004F48C068A1680160456001F078F8206879
:105080005B49086060685B490860002032BD80B5FC
:1050900047481021C26812681172C0680168042074
:1050A00000F0B2F801F06EF8002002BD10B5404CDF
:1050B000E0680168052000F0A7F8E06800684C4946
:1050C0000968884710BD1CB50BE06946200001F057
:1050D000FFF80099062000F097F800984549096804
:1050E0008847424C200001F0C2F80028EDD013BDE3
:1050F00038B50400404D280001F0B6F83F4801F0F3
:10510000B3F83F482A4909690160A16802689160C3
:10511000E1680268D16001680D6121680268116070
:1051200061680268516021690268516161690068C3
:10513000816131BD10B504002100304801F0B0F8A4
:105140002100002000F060F80FF2090001F03DF8A6
:1051500010BD00001CB509E06946200001F0B8F858
:10516000009913480069006901F09AF8234C200067
:1051700001F07DF80028EFD013BD10B5214C2000C0
:1051800001F072F80A484069046001F049F810BD66
:105190001CB506E06946200001F09AF8009801F07D
:1051A000A4F8184C200001F062F80028F2D013BDDA
:1051B00000000320B8090320F4090320040A032097
:1051C0002C0A0320340A03203C0A0320D8090320B8
:1051D000640A0320140A0320200A0320540A03202F
:1051E0009C08032034160020381600205C0A032097
:1051F0003C16002040160020440A0320CC15002055
:10520000441600204C0A0320C0B2002809D002280E
:1052100014D012D304281DD018D306281FD01AD3B7
:1052200020E0487A0E2805D00F2802D0FF2802D0AF
:1052300002E001E000E0FFE714E013E0487A0E2806
:1052400002D00F2801D100E0FFE70BE0487AFF28E9
:10525000FFD107E006E048780E28FFD002E0487A48
:10526000FF28FFE7704700002DE9F84F7F4D2C68BD
:105270002968084028607B4E30687D490A687A4F6B
:105280003968DFF8F081D8F800301EE009EBC00380
:1052900053F8083CDAF800C011FA0CFC33EA0C03AE
:1052A00009EBC00C4CF8083C401E0028EED182F3FC
:1052B00010887248DAF8001050F8210080473068F2
:1052C0006B490A683968D8F800300840D5F800C042
:1052D00010EA0C0F3FD01A423DD15FF0000B01E005
:1052E0001BF1010BDFF8989159F83B0008402A6840
:1052F0001042F5D059F83B0001402868084009EBFE
:10530000CB014968014204D15FF0FF3109EBCB02C8
:105310005160DFF864A109EBCB014968084000F057
:10532000B1F8CAF80000012109EBCB004068DAF8B7
:10533000002011FA02F2904309EBCB025060EFF328
:10534000108272B63068DAF8003011FA03F398432D
:1053500030600220A9E75FF0FF304749086000F0A5
:10536000C5FFEFF3108972B63068414909683A68A1
:1053700010402A68104205D1D8F80000014201D13E
:10538000FEF761F889F31088FEF761F82C60BDE83C
:10539000F18F38B51400EFF3108572B600F072F893
:1053A000364941F8204085F3108831BD10B4EFF341
:1053B000108272B62B4B1C6804431C60304B53F8B0
:1053C0003140204343F8310082F3108810BC70470D
:1053D000EFF3108172B6244A136833EA00001060BC
:1053E00081F310887047EFF3108172B61E4A13687C
:1053F0001843106081F310887047EFF3108172B684
:105400001B4A13681843106081F3108870472DE918
:10541000F8430400184F3D68386810F1010F01D1BE
:10542000002602E0012638688640DFF84890D9F867
:105430000080C9F8004003E02100300000F057FF71
:105440000B4801682142F7D03D60EFF3108172B63E
:10545000026832EA0404046081F31088C9F800800D
:10546000BDE8F18320160020201000202410002029
:1054700024160020281600202C160020801300205F
:105480009C150020B0FA80F0D0F11F00C0B2704728
:1054900010B50C0061685D4A11605D49C861080083
:1054A00000F02AFF206800F06BF810BD3EB5594CA3
:1054B000200000F0DCFE002824D1574D2878002879
:1054C00020D06946200000F003FF5149C869002838
:1054D0000BD00098029001208DF8040001A8C96942
:1054E00088479DF80400287001E001202870287882
:1054F000002803D00098FFF71DFE03E0009920006C
:1055000000F0C2FE200000F0B2FE002806D14248A2
:105510000078002802D02000FDF79AFF37BD2DE962
:10552000F04106000F0090461C00002000F044F8F7
:105530003A4D2868A0F809602868C772FFB2286849
:1055400010F10C063A0041463000FDF709FE01203B
:1055500033490870002100202D4A1269904748F213
:10556000E800FDF781FF28688278D21C296808349A
:105570002000FDF7F5FD012000F01EF8BDE8F081E8
:105580001FB5040025480460224800F06DFE01208C
:1055900000F012F80120204908701D490868002811
:1055A00009D002940FF2450000900FF24D000190D7
:1055B0006846096888471FBD80B5C0B200280AD177
:1055C00012490868002802D0002009688847002096
:1055D0001449087009E00120124908700B49086855
:1055E000002802D001200968884701BD80B500204D
:1055F000FDF735FF01BD000010B50100054C20008E
:1056000000F04EFE2000FDF723FF10BD0416002021
:1056100034150020E41500206A16002050160020E2
:1056200066160020691600201FB56C46230010F195
:105630000C022E214FF66640FFF771FFA07B04B0ED
:1056400010BD1FB56C46230010F10C020F214FF660
:105650006840FFF764FFA07B04B010BD1FB50200D7
:105660006C46230010214FF67540FFF758FFA07BD2
:1056700004B010BD70B400210021002100210021E0
:1056800000210021002126490A689204920C254934
:1056900011EB82031D682B68234CA34205D16A6974
:1056A000AB69EC69EE6829690BE011EB82010B68CC
:1056B0001A690C6863690D68AC690D686E680D68DD
:1056C000A96815002D0E057015002D0C45701500EC
:1056D0002D0A85701500C5F30315C57012F00F0271
:1056E00002711A00120E42711A00120C82711A0015
:1056F000120AC271037244723200120E82723200B8
:10570000120CC272360A06730A00120E42730A00A5
:10571000120C8273C173002070BC7047000000003F
:105720003C40005800000320B95646A9DFF87C042D
:1057300000687047DFF87804007800F0FF007047D9
:10574000DFF86C040068000A704718B58FB068462F
:10575000DFF860143C22FDF713FD00F0E5F80121AD
:105760000220FFF794FBDFF8502400218020FFF790
:1057700010FE6846FFF758FFC0B2002801D0FDF7C1
:10578000CDFA00F0DDF800F0C1FDDFF83044002074
:1057900084F884004FF6FF70E08200202083002010
:1057A000A0760FF2BD3200210120FFF7F2FD0FF2CB
:1057B000E13200210220FFF7ECFD00F0BDFD00F01A
:1057C00009FB0FF28533002214F185010020FFF759
:1057D00037F90FF28133002214F11B010020FFF78B
:1057E0002FF9022060770120207741F6090000F0B0
:1057F0009AF98020DFF8C8130880A020DFF8C413CE
:105800000880022000F021F910B010BD38B59221B7
:10581000401C0178052904D03E2915D0FF2945D028
:105820007CE0811CDFF89403B1F80110C28A914238
:1058300004D10021C182002180F8841000F0F5FA23
:10584000022000F002F969E0801C0178012911D0E2
:10585000032902D00C2901D027E026E0401C6A462B
:105860000DF10101DFF85403C08A00F0ABFDC0B2B6
:1058700000281AE0441CDFF8445395F88500FFF730
:1058800020F995F88400042803D1062085F88400C7
:1058900002E0052085F88400B4F80100E8824FF4A6
:1058A0008061E87EFFF763F9FFE737E0801C01883D
:1058B0004FF48062891A14D0491E27D0491E11D096
:1058C000491E15D0891E14D0891E21D0491E15D01D
:1058D000491E15D0491E12D040F60402891A18D06C
:1058E0001BE01AE0B849B548C08A00F0AFFE14E0EA
:1058F00013E0B248C08A00F06AFF0EE00DE00CE051
:105900000121AE48C08A00F089FF06E0801C04E057
:1059100003E0AA48C08A01F0F6F8FFE7012032BD93
:10592000A64890F884007047E0B5A84800900FF2B0
:105930000530019069460FF2DD2001F00DF907BD39
:1059400018B587B0022100220DF116042000FCF7E3
:10595000CDFE922000F016FD00F0C5F804002200F4
:105960000621002001F00CFA994861790172217931
:105970004172E1788172A178C172617801732178F6
:105980004173944A1021182001F0FAF9924A10212B
:10599000082001F0F5F91821012001F023FA00F0A8
:1059A00066FF002050F001000100C9B2002918D0A4
:1059B0008A4C06A901910DF11A01009105AB07224D
:1059C0000021C0B200F06CFE200001F035FA0300A7
:1059D0000094DBB20022BDF81A10BDF8140001F0EB
:1059E0005AF80DF11600009002230022BDF818109D
:1059F000BDF8140001F04FF8704C012020702078A1
:105A000000F0B3FD0120607008202071102060714B
:105A10000020E0707248A0600020A0700020049078
:105A2000A0680390E078029060790190207900905E
:105A3000002301226178A07800F0BEFDA078002844
:105A400001D000F0A4FE08B010BDF0B587B004008E
:105A500092202000C0B2012804D159480688594834
:105A6000078803E04FF4C8664FF47A67534D95F802
:105A70008500FFF726F82000C0B2022809D195F86A
:105A80008400012803D095F88400022801D100F099
:105A9000D5FC85F88440002006900020059015F183
:105AA0001D000490287F03904E480290062001902C
:105AB0000020009000233A0092B2310089B2002009
:105AC00000F0DCFC42490E2000F032FEC0B200289B
:105AD00007D1E4B2012C04D1434995F88500FFF7C2
